:100000000C94B4000C94DC000C94DC000C94DC0028
:100010000C94DC000C94DC000C94DC000C94DC00F0
:100020000C94DC000C94DC000C94DC000C94DC00E0
:100030000C94DC000C94AA040C94DC000C94DC00FE
:100040000C94DC000C94DC000C9460040C94DC0038
:100050000C942E040C9408040C94DC000C94DC002A
:100060000C94DC000C94DC000C94DC000C94DC00A0
:100070000C94D6030C94B0030C94DC000C94DC00BC
:100080000C94DC000C94DC000C94DC000C94DC0080
:100090000C94DC000C94DC000C94DC000C94DC0070
:1000A0000C94DC000C94DC000C94DC000C94DC0060
:1000B0000C94DC000C94DC000C94DC000C94DC0050
:1000C0000C94DC000C94DC000C94DC00000021009B
:1000D000240027002A002D0000002200250028000F
:1000E0002B002E00000020002300260029002C00F9
:1000F00002020202020202020404040404040404D0
:1001000003030303030303030101010101010101CF
:1001100005050505050505010204081020408001BC
:1001200002040810204080010204081020408001D1
:100130000204081020408001020408102040000042
:10014000000203000A0B000000000504090800007B
:1001500000000D0000000000000000000000000092
:10016000000000000000660511241FBECFEFD8E09C
:10017000DEBFCDBF11E0A0E0B1E0E2E3F7E102C0F5
:1001800005900D92AC33B107D9F722E0ACE3B1E0B2
:1001900001C01D92AA3BB207E1F710E0C4EBD0E02A
:1001A00004C02197FE010E94910BC33BD107C9F700
:1001B0000E940E060C94970B0C94000000000000A7
:1001C00085E090E00197F1F70895CF92DF92EF92EA
:1001D000FF921F93CF93DF931091B7021C3008F06A
:1001E00047C08091B802C8E8D0E0C81BD10987FD9C
:1001F000D395CC0FDD1FCC0FDD1F6E010D2E000C33
:10020000EE08FF088091B90228E532E0281B310989
:1002100087FD3395220F331F220F331F032E000C4F
:10022000440B550B2C193D094E095F09A2E3B0E0C0
:100230000E94390924EB30E040E050E00E941A09A6
:100240002C0D3D1D4E1D5F1D2C173D070CF49E010E
:100250004FB7F894812F90E022503109FC01EE0F46
:10026000FF1FE80FF91FE057FD4F328321834FBF77
:10027000DF91CF911F91FF90EF90DF90CF90089585
:10028000AF92BF92CF92DF92EF92FF920F931F93A4
:10029000CF93DF936C017B018B01040F151FEB01E2
:1002A0005E01AE18BF08C017D10759F06991D60199
:1002B000ED91FC910190F081E02DC6010995892B0B
:1002C00079F7C501DF91CF911F910F91FF90EF90CA
:1002D000DF90CF90BF90AF900895FC01538D448D77
:1002E000252F30E0842F90E0821B930B541710F0E1
:1002F000CF96089501970895FC01918D828D9817EE
:1003000061F0A28DAE0FBF2FB11D5D968C91928DC5
:100310009F5F9F73928F90E008958FEF9FEF0895F6
:10032000FC01918D828D981731F0828DE80FF11DBF
:10033000858D90E008958FEF9FEF0895FC01918DDA
:10034000228D892F90E0805C9F4F821B91098F73D3
:100350009927089582E591E00E949E0121E0892B72
:1003600009F420E0822F08958FEE91E00E949E0113
:1003700021E0892B09F420E0822F0895FC01A48D4F
:10038000A80FB92FB11DA35ABF4F2C91848D90E0B7
:1003900001968F739927848FA689B7892C93A0899A
:1003A000B1898C91837080648C93938D848D981324
:1003B00006C00288F389E02D80818F7D80830895B7
:1003C000EF92FF920F931F93CF93DF93EC0181E0A5
:1003D000888F9B8D8C8D98131AC0E889F98980814C
:1003E00085FF15C09FB7F894EE89FF896083E8897F
:1003F000F98980818370806480839FBF81E090E071
:10040000DF91CF911F910F91FF90EF900895F62EFD
:100410000B8D10E00F5F1F4F0F731127E02E8C8D97
:100420008E110CC00FB607FCFACFE889F9898081DC
:1004300085FFF5CFCE010E94BE01F1CFEB8DEC0F11
:10044000FD2FF11DE35AFF4FF0829FB7F8940B8FF9
:10045000EA89FB8980818062CFCFCF93DF93EC0163
:10046000888D8823B9F0AA89BB89E889F9898C919C
:1004700085FD03C0808186FD0DC00FB607FCF7CF58
:100480008C9185FFF2CF808185FFEDCFCE010E9458
:10049000BE01E9CFDF91CF91089580E090E0892BF4
:1004A00029F00E94B40181110E94000080E090E0D8
:1004B000892B29F00E94AA0181110E94000080E08E
:1004C00090E0892B49F080E090E0892B29F00E9490
:1004D000000081110C940000089582508D3008F0C6
:1004E0003EC0E82FF0E0E958FD4F0C94910BAC02B0
:1004F000B00284028A02AF02AF028E029402980216
:100500009E02AF02A202A802809180008F778093A2
:1005100080000895809180008F7DF9CF8091B00098
:100520008F778093B00008958091B0008F7DF9CFD0
:10053000809190008F778093900008958091900033
:100540008F7DF9CF8091A0008F778093A0000895D0
:100550008091A0008F7DF9CF84B58F7784BD0895F9
:1005600084B58F7DFBCFCF93DF93282F30E0F90147
:10057000E25CFE4F8491F901E95EFE4FD491F901EE
:10058000E051FF4FC491CC23A1F081110E946D0274
:10059000EC2FF0E0EE0FFF1FEC51FF4FA591B4914F
:1005A000EC91ED2381E090E009F480E0DF91CF91C0
:1005B000089580E090E0FACF1F93CF93DF93282F28
:1005C00030E0F901E25CFE4F8491F901E95EFE4FF3
:1005D000D491F901E051FF4FC491CC23A9F0162F1B
:1005E00081110E946D02EC2FF0E0EE0FFF1FE85228
:1005F000FF4FA591B4918FB7F894EC91111108C0F9
:10060000D095DE23DC938FBFDF91CF911F910895AA
:10061000DE2BF8CFCF93DF9390E0FC01E95EFE4F35
:10062000249180519F4FFC0184918823D1F090E068
:10063000880F991FFC01E453FF4FA591B491FC0171
:10064000E852FF4FC591D49161110EC09FB7F89445
:100650008C91E22FE0958E238C932881E223E8830E
:100660009FBFDF91CF9108958FB7F894EC91E22B63
:10067000EC938FBFF6CF3FB7F89480913E019091F5
:100680003F01A0914001B091410126B5A89B05C052
:100690002F3F19F00196A11DB11D3FBFBA2FA92F01
:1006A000982F8827BC01CD01620F711D811D911DFE
:1006B00043E0660F771F881F991F4A95D1F7089569
:1006C0008F929F92AF92BF92CF92DF92EF92FF9262
:1006D0004B015C010E943B036B017C010E943B03C8
:1006E0006C197D098E099F09683E7340810591054B
:1006F000A8F321E0821A9108A108B10888EEC80E7B
:1007000083E0D81EE11CF11C81149104A104B10402
:1007100029F7FF90EF90DF90CF90BF90AF909F9020
:100720008F9008950F931F93CF93DF93EC01FB01FC
:1007300001900020E9F73197AF01461B570B0E944B
:1007400040018C0142E050E060E271E0CE010E9485
:100750004001800F911FDF91CF911F910F9108955C
:100760001F920F920FB60F9211242F933F934F9326
:100770005F936F937F938F939F93AF93BF93EF9309
:10078000FF9382E591E00E94BE01FF91EF91BF913E
:10079000AF919F918F917F916F915F914F913F9119
:1007A0002F910F900FBE0F901F9018951F920F92D0
:1007B0000FB60F9211242F938F939F93EF93FF9374
:1007C000E0916201F09163018081E0916801F09114
:1007D000690182FD1BC0908180916B018F5F8F73D7
:1007E00020916C01821741F0E0916B01F0E0EE5A2C
:1007F000FE4F958F80936B01FF91EF919F918F91A9
:100800002F910F900FBE0F901F9018958081F4CFFD
:100810001F920F920FB60F9211242F933F934F9375
:100820005F936F937F938F939F93AF93BF93EF9358
:10083000FF938FEE91E00E94BE01FF91EF91BF9177
:10084000AF919F918F917F916F915F914F913F9168
:100850002F910F900FBE0F901F9018951F920F921F
:100860000FB60F9211242F938F939F93EF93FF93C3
:10087000E091FF01F09100028081E0910502F0918A
:10088000060282FD1BC09081809108028F5F8F73EA
:1008900020910902821741F0E0910802F0E0E15155
:1008A000FE4F958F80930802FF91EF919F918F915A
:1008B0002F910F900FBE0F901F9018958081F4CF4D
:1008C0001F920F920FB60F9211242F933F938F9385
:1008D0009F93AF93BF9380918C0290918D02A091D2
:1008E0008E02B0918F0230913D0126E0230F2D370B
:1008F00068F129E8230F0396A11DB11D20933D0146
:1009000080938C0290938D02A0938E02B0938F02FD
:1009100080913E0190913F01A0914001B091410131
:100920000196A11DB11D80933E0190933F01A093BC
:100930004001B0934101BF91AF919F918F913F9141
:100940002F910F900FBE0F901F9018950296A11D2A
:10095000B11DD4CF1F920F920FB60F9211242F9377
:100960003F934F935F936F937F938F939F93AF9337
:10097000BF93CF93DF93EF93FF9380913C01C0919E
:10098000B402D0E087FF24C010928500109284004A
:1009900080913C018F5F80933C0180913C01082E47
:1009A000000C990B8C179D0724F480913C018C302E
:1009B000C4F18091840090918500049680329E4419
:1009C00008F47AC08091840090918500049676C0E6
:1009D00080913C01082E000C990B8C179D07C4F6E2
:1009E000E0913C018E2FEE0F990BFC01EE0FFF1FE3
:1009F000E80FF91FE057FD4F808186FFC9CFE091D6
:100A00003C018E2FEE0F990BFC01EE0FFF1FE80F3C
:100A1000F91FE057FD4F808160E08F730E94DC0278
:100A2000B7CF2091840030918500E0913C018E2F5A
:100A3000EE0F990BFC01EE0FFF1FE80FF91FE057B7
:100A4000FD4F81819281820F931F90938900809343
:100A50008800E0913C018E2FEE0F990BFC01EE0F08
:100A6000FF1FE80FF91FE057FD4F808186FF11C07F
:100A7000E0913C018E2FEE0F990BFC01EE0FFF1F52
:100A8000E80FF91FE057FD4F808161E08F730E94EE
:100A9000DC02FF91EF91DF91CF91BF91AF919F91D8
:100AA0008F917F916F915F914F913F912F910F9017
:100AB0000FBE0F901F90189580E29EE490938900DE
:100AC000809388008FEF80933C01E3CF1092550113
:100AD0001092540148EE53E060E070E040935601FC
:100AE00050935701609358017093590182E191E04E
:100AF00090935301809352012DEC30E030935F01CD
:100B000020935E012CEC30E0309361012093600172
:100B100028EC30E0309363012093620129EC30E04F
:100B200030936501209364012AEC30E03093670133
:100B3000209366012EEC30E0309369012093680128
:100B400010926B0110926C0110926D0110926E0167
:100B50001092F2011092F1014093F3015093F401CD
:100B60006093F5017093F6019093F0018093EF018B
:100B700085EC90E09093FC018093FB0184EC90E085
:100B80009093FE018093FD0180EC90E09093000231
:100B90008093FF0181EC90E0909302028093010228
:100BA00082EC90E0909304028093030286EC90E044
:100BB0009093060280930502109208021092090297
:100BC00010920A0210920B028091B4028C3010F540
:100BD00091E0980F9093B4028093B70290E0FC01EB
:100BE000EE0FFF1FE80FF91FE057FD4F8CED95E06A
:100BF000928381832FB7F89480918C0290918D021B
:100C0000A0918E02B0918F022FBF9093B602809375
:100C1000B50208958FEF8093B702ECCFCF93DF93A7
:100C2000CDB7DEB761970FB6F894DEBF0FBECDBF6C
:100C3000789484B5836084BD85B5836085BD8091DB
:100C40006E00816080936E0082E0809381008091CD
:100C50008100816080938100809180008160809319
:100C600080008091B10084608093B1008091B000D9
:100C700081608093B00080919100836080939100A7
:100C8000809190008160809390008091A1008360AA
:100C90008093A1008091A00081608093A00086E8ED
:100CA00080937A001092C10061E084E10E940A03FF
:100CB00061E083E10E940A0361E082E10E940A038D
:100CC00061E081E10E940A0361E082E10E94DC02AE
:100CD00061E081E10E94DC0261E08CE10E940A0394
:100CE00061E087E10E940A0361E086E10E940A0355
:100CF00061E085E10E940A0361E086E10E94DC0276
:100D000061E085E10E94DC028091B7028C3008F03E
:100D100051C061E08CE00E940A038091B702282F45
:100D200030E0F901EE0FFF1FE20FF31FE057FD4F18
:100D30009081907C9C6090831092B8021092B902CE
:100D40002CE0622F0E94850B829FB001112430E0BD
:100D500020E0AB01420F531FFA01EE0FFF1FE40F1B
:100D6000F51FE057FD4F908196FD16C02F5F3F4F56
:100D70002C30310571F781110FC01092800082E094
:100D8000809381001092850010928400B19A809126
:100D90006F00826080936F00E091B7028E2F90E029
:100DA000FC01EE0FFF1FE80FF91FE057FD4F808198
:100DB000806480830E94E50061E086E20E940A036D
:100DC00060E086E20E94DC0261E08EE00E940A039D
:100DD00061E08EE00E940A0360E08EE00E94DC0287
:100DE000E091FF01F0910002A2E0FA2EF082E09182
:100DF000FB01F091FC011082E091FD01F091FE01F8
:100E000009E1008310920702E0910302F0910402CD
:100E100016E01083E0910102F0910202808188695E
:100E20008083E0910102F091020280818F7D8083B6
:100E300063E271E08FEE91E00E949203E091620123
:100E4000F0916301F082E0915E01F0915F01108208
:100E5000E0916001F0916101008310926A01E091DC
:100E60006601F09167011083E0916401F0916501E2
:100E7000808188698083E0916401F09165018081BF
:100E80008F7D808360E371E082E591E00E949203B0
:100E900060E084E00E940A0360E083E00E940A03AD
:100EA00004E010E061E086E20E94DC0264EF71E0A1
:100EB00080E090E00E94600360E086E20E94DC0235
:100EC00064EF71E080E090E00E946003015011093E
:100ED00049F70E94E5001E0183E0280E311C4E01F7
:100EE0009EE0890E911C2FB7F89480918C0290910E
:100EF0008D02A0918E02B0918F022FBF9093B60207
:100F00008093B502F8E4AF2EF1E0BF2EE4E0F1E00B
:100F1000F98BE88B10E000E0F501819191915F0180
:100F2000E889F98921913191F98BE88B820F931F20
:100F30002091B5023091B60282179307B4F10230C6
:100F4000110509F4AFC00CF03FC00130110509F4E0
:100F500053C0E0904601F0904701E114F104E9F03C
:100F60001092030160E083E10E94DC0260E084E112
:100F70000E94DC020E94DE0061E084E10E94DC024B
:100F80000E94DE0060E084E10E94DC02F1E0EF1AE2
:100F9000F108F0924701E09246018091B5029091EC
:100FA000B602F5013297918380830F5F1F4F0530A2
:100FB000110509F0B1CF61E070E080E090E00E949F
:100FC00060030E944D028FCF0330110509F490C0D9
:100FD0000430110509F0BDCF80910001909101010D
:100FE000892B09F41CC161E086E20E94DC021092A8
:100FF000010110920001D1CF60E08EE00E94DC027E
:1010000064E670E080E090E00E94600385E48093F5
:101010007C0080917A00806480937A0080917A00CD
:1010200086FDFCCF609178007091790077FF03C056
:10103000719561957109072E000C880B990B0E9420
:101040008C0A20E030E44EE455E40E94180B20E0C6
:1010500030EC4FE754E40E94E2090E94540A072E44
:10106000000C880B990B0E948C0A2EEA37E441E2AF
:101070005FE30E94180B20E030E040E251E40E9460
:1010800076090E945B0A709345016093440160E019
:101090008EE00E94DC0264E670E080E090E00E9456
:1010A00060037BCFE0904201F0904301E114F10432
:1010B00009F473CF1092020160E087E10E94DC0224
:1010C00060E08CE10E94DC020E94DE0061E08CE1C5
:1010D0000E94DC020E94DE0060E08CE10E94DC02E3
:1010E00091E0E91AF108F0924301E092420155CFF4
:1010F000EAE0F0E0FA83E983F1018DE011928A954C
:10110000E9F790914401809145019C838D839091F2
:101110004601809147019E838F8390914201809187
:101120004301988789878091B90258E5C52E52E01E
:10113000D52EC81AD10887FDD394CC0CDD1CCC0C5D
:10114000DD1C0D2C000CEE08FF088091B80278E839
:10115000472E512C481A510887FD5394440C551CB6
:10116000440C551C052C000C660877088091B702CA
:101170008F3F09F451C090E0FC01EE0FFF1FE80F14
:10118000F91FE057FD4F8181928133E0880F991F4D
:101190003A95E1F7B0E0A0E043E0B595A7959795C3
:1011A00087954A95D1F702969C012F5F3F4F032EFA
:1011B000000C440B550B2419350946095709A4EBBB
:1011C000B0E00E943909A7019601241935094609A2
:1011D00057090E941A092A873B8784E00E94B302BC
:1011E000F82E83E00E94B302880FF80EFC861D865D
:1011F000FE01329680E0919189278E169F06D9F7DD
:101200008E871F864FE050E0BE016F5F7F4F82E503
:1012100091E00E944001C1CE90E080E0C5CF60E047
:1012200086E20E94DC02E1E0F0E0F0930101E0934D
:101230000001B3CE052E97FB1EF400940E943109E5
:1012400057FD07D00E94440907FC03D04EF40C94CC
:10125000310950954095309521953F4F4F4F5F4F45
:10126000089590958095709561957F4F8F4F9F4F12
:1012700008950E946609A59F900DB49F900DA49FAC
:10128000800D911D11240895A1E21A2EAA1BBB1BEB
:10129000FD010DC0AA1FBB1FEE1FFF1FA217B30742
:1012A000E407F50720F0A21BB30BE40BF50B661F58
:1012B000771F881F991F1A9469F76095709580951C
:1012C00090959B01AC01BD01CF010895A29FB00193
:1012D000B39FC001A39F700D811D1124911DB29F6A
:1012E000700D811D1124911D08955058BB27AA2708
:1012F0000E948D090C94DE0A0E94D00A38F00E94E8
:10130000D70A20F039F49F3F19F426F40C94CD0A43
:101310000EF4E095E7FB0C94C70AE92F0E94EF0A50
:1013200058F3BA17620773078407950720F079F41A
:10133000A6F50C94110B0EF4E0950B2EBA2FA02DF0
:101340000B01B90190010C01CA01A0011124FF2772
:10135000591B99F0593F50F4503E68F11A16F0406D
:10136000A22F232F342F4427585FF3CF469537956C
:101370002795A795F0405395C9F77EF41F16BA0B31
:10138000620B730B840BBAF09150A1F0FF0FBB1FDF
:10139000661F771F881FC2F70EC0BA0F621F731F28
:1013A000841F48F4879577956795B795F7959E3F85
:1013B00008F0B0CF9395880F08F09927EE0F979516
:1013C000879508950E94F6090C94DE0A0E94D70AB8
:1013D00058F00E94D00A40F029F45F3F29F00C94A5
:1013E000C70A51110C94120B0C94CD0A0E94EF0AFB
:1013F00068F39923B1F3552391F3951B550BBB2744
:10140000AA2762177307840738F09F5F5F4F220F88
:10141000331F441FAA1FA9F335D00E2E3AF0E0E87F
:1014200032D091505040E695001CCAF72BD0FE2FC9
:1014300029D0660F771F881FBB1F2617370748075D
:10144000AB07B0E809F0BB0B802DBF01FF27935815
:101450005F4F3AF09E3F510578F00C94C70A0C9408
:10146000120B5F3FE4F3983ED4F38695779567952A
:10147000B795F7959F5FC9F7880F911D969587954A
:1014800097F90895E1E0660F771F881FBB1F621769
:1014900073078407BA0720F0621B730B840BBA0B27
:1014A000EE1F88F7E09508950E945B0A6894B111D9
:1014B0000C94120B08950E94F70A88F09F5798F039
:1014C000B92F9927B751B0F0E1F0660F771F881F49
:1014D000991F1AF0BA95C9F714C0B13091F00E9463
:1014E000110BB1E008950C94110B672F782F88270A
:1014F000B85F39F0B93FCCF3869577956795B3958A
:10150000D9F73EF490958095709561957F4F8F4FF8
:101510009F4F0895E89409C097FB3EF490958095FD
:10152000709561957F4F8F4F9F4F9923A9F0F92FA9
:1015300096E9BB279395F695879577956795B79527
:10154000F111F8CFFAF4BB0F11F460FF1BC06F5F0D
:101550007F4F8F4F9F4F16C0882311F096E911C01F
:10156000772321F09EE8872F762F05C0662371F040
:1015700096E8862F70E060E02AF09A95660F771F54
:10158000881FDAF7880F9695879597F9089597F948
:101590009F6780E870E060E008959FEF80EC089519
:1015A00000240A9416161706180609060895002442
:1015B0000A9412161306140605060895092E0394BC
:1015C000000C11F4882352F0BB0F40F4BF2B11F430
:1015D00060FF04C06F5F7F4F8F4F9F4F089557FD8F
:1015E0009058440F551F59F05F3F71F04795880F91
:1015F00097FB991F61F09F3F79F087950895121628
:1016000013061406551FF2CF4695F1DF08C01616D3
:1016100017061806991FF1CF869571056105089484
:101620000895E894BB2766277727CB0197F908959B
:101630000E942B0B0C94DE0A0E94D00A38F00E9404
:10164000D70A20F0952311F00C94C70A0C94CD0A08
:1016500011240C94120B0E94EF0A70F3959FC1F3B2
:10166000950F50E0551F629FF001729FBB27F00D50
:10167000B11D639FAA27F00DB11DAA1F649F6627A5
:10168000B00DA11D661F829F2227B00DA11D621FF4
:10169000739FB00DA11D621F839FA00D611D221FAE
:1016A000749F3327A00D611D231F849F600D211D92
:1016B000822F762F6A2F11249F5750409AF0F1F015
:1016C00088234AF0EE0FFF1FBB1F661F771F881F7E
:1016D00091505040A9F79E3F510580F00C94C70AE5
:1016E0000C94120B5F3FE4F3983ED4F38695779504
:1016F0006795B795F795E7959F5FC1F7FE2B880F24
:10170000911D9695879597F90895991B79E004C0E6
:10171000991F961708F0961B881F7A95C9F7809530
:101720000895EE0FFF1F0590F491E02D0994F894B1
:02173000FFCFE9
:10173200010001010100E8030100F401F4010000CD
:101742000000E00140016D012D029E017C0190012B
:101752000D0A00426F6F74696E672075702E2E003D
:0C17620048656C6C6F2052657875730050
:00000001FF
