:100000000C94AE000C94D6000C94D6000C94D60040
:100010000C94D6000C94D6000C94D6000C94D60008
:100020000C94D6000C94D6000C94D6000C94D600F8
:100030000C94D6000C94A3030C94D6000C94D60018
:100040000C94D6000C94D6000C9459030C94D60052
:100050000C9427030C9401030C94D6000C94D60046
:100060000C94D6000C94D6000C94D6000C94D600B8
:100070000C94CF020C94A9020C94D6000C94D600D8
:100080000C94D6000C94D6000C94D6000C94D60098
:100090000C94D6000C94D6000C94D6000C94D60088
:1000A0000C94D6000C94D6000C94D6000C94D60078
:1000B0000C94D6000C94D6000C94D6000C94D60068
:1000C0000C94D6000C94D6000C94D60000002100AD
:1000D000240027002A002D0000002200250028000F
:1000E0002B002E0002020202020202020404040497
:1000F00004040404030303030303030301010101D4
:1001000001010101050505050505050102040810A9
:1001100020408001020408102040800102040810E1
:1001200020408001020408102040800102040810D1
:1001300020400000000203000A0B0000000005043C
:100140000908000000000D00000000000000000091
:10015000000000000000000000005F0411241FBE2A
:10016000CFEFD8E0DEBFCDBF11E0A0E0B1E0E6E523
:10017000FFE002C005900D92A431B107D9F722E04B
:10018000A4E1B1E001C01D92A039B207E1F710E08F
:10019000CEEAD0E004C02197FE010E94A307CD3A29
:1001A000D107C9F70E9403050C94A9070C9400001D
:1001B000AF92BF92CF92DF92EF92FF920F931F9375
:1001C000CF93DF936C017B018B01040F151FEB01B3
:1001D0005E01AE18BF08C017D10759F06991D6016A
:1001E000ED91FC910190F081E02DC6010995892BDC
:1001F00079F7C501DF91CF911F910F91FF90EF909B
:10020000DF90CF90BF90AF900895FC01538D448D47
:10021000252F30E0842F90E0821B930B541710F0B1
:10022000CF96089501970895FC01918D828D9817BE
:1002300061F0A28DAE0FBF2FB11D5D968C91928D96
:100240009F5F9F73928F90E008958FEF9FEF0895C7
:10025000FC01918D828D981731F0828DE80FF11D90
:10026000858D90E008958FEF9FEF0895FC01918DAB
:10027000228D892F90E0805C9F4F821B91098F73A4
:10028000992708958AE291E00E94360121E0892BA6
:1002900009F420E0822F089587EC91E00E94360156
:1002A00021E0892B09F420E0822F0895FC01A48D20
:1002B000A80FB92FB11DA35ABF4F2C91848D90E088
:1002C00001968F739927848FA689B7892C93A0896B
:1002D000B1898C91837080648C93938D848D9813F5
:1002E00006C00288F389E02D80818F7D8083089588
:1002F000EF92FF920F931F93CF93DF93EC0181E076
:10030000888F9B8D8C8D98131AC0E889F98980811C
:1003100085FF15C09FB7F894EE89FF896083E8894F
:10032000F98980818370806480839FBF81E090E041
:10033000DF91CF911F910F91FF90EF900895F62ECE
:100340000B8D10E00F5F1F4F0F731127E02E8C8D68
:100350008E110CC00FB607FCFACFE889F9898081AD
:1003600085FFF5CFCE010E945601F1CFEB8DEC0F4A
:10037000FD2FF11DE35AFF4FF0829FB7F8940B8FCA
:10038000EA89FB8980818062CFCFCF93DF93EC0134
:10039000888D8823B9F0AA89BB89E889F9898C916D
:1003A00085FD03C0808186FD0DC00FB607FCF7CF29
:1003B0008C9185FFF2CF808185FFEDCFCE010E9429
:1003C0005601E9CFDF91CF91089580E090E0892B2D
:1003D00029F00E944C0181110E94000080E090E011
:1003E000892B29F00E94420181110E94000080E0C7
:1003F00090E0892B49F080E090E0892B29F00E9461
:10040000000081110C9400000895282F30E0F901BC
:10041000EE5CFE4F9491F901E55FFE4F84912C5103
:100420003F4FF9012491222309F42EC09923D9F0DA
:1004300092509D30C0F4E92FF0E0EF5DFD4F0C9439
:10044000A30767026B022E02450233023302490200
:100450004F025302590233025D0263029091800001
:100460009F7790938000E22FF0E0EE0FFF1FE8529D
:10047000FF4FA591B4919FB7F894EC9161112EC0F4
:1004800080958E238C939FBF0895909180009F7DCF
:10049000E8CF9091B0009F779093B000E4CF909117
:1004A000B0009F7DF9CF909190009F77909390003E
:1004B000DACF909190009F7DF9CF9091A0009F7727
:1004C0009093A000D0CF9091A0009F7DF9CF94B5DC
:1004D0009F7794BDC8CF94B59F7DFBCF8E2BD2CF95
:1004E000CF93DF9390E0FC01E55FFE4F24918C51A8
:1004F0009F4FFC0184918823D1F090E0880F991FD1
:10050000FC01E453FF4FA591B491FC01E852FF4F69
:10051000C591D49161110EC09FB7F8948C91E22FD0
:10052000E0958E238C932881E223E8839FBFDF919F
:10053000CF9108958FB7F894EC91E22BEC938FBF95
:10054000F6CF880F991F880F991F05970197F1F72C
:1005500008951F920F920FB60F9211242F933F937D
:100560004F935F936F937F938F939F93AF93BF93BB
:10057000EF93FF938AE291E00E945601FF91EF9181
:10058000BF91AF919F918F917F916F915F914F91AB
:100590003F912F910F900FBE0F901F9018951F92B3
:1005A0000F920FB60F9211242F938F939F93EF9377
:1005B000FF93E0913A01F0913B018081E09140018D
:1005C000F091410182FD1BC09081809143018F5FBA
:1005D0008F7320914401821741F0E0914301F0E0D4
:1005E000E65DFE4F958F80934301FF91EF919F91C0
:1005F0008F912F910F900FBE0F901F9018958081B3
:10060000F4CF1F920F920FB60F9211242F933F93A6
:100610004F935F936F937F938F939F93AF93BF930A
:10062000EF93FF9387EC91E00E945601FF91EF91C9
:10063000BF91AF919F918F917F916F915F914F91FA
:100640003F912F910F900FBE0F901F9018951F9202
:100650000F920FB60F9211242F938F939F93EF93C6
:10066000FF93E091D701F091D8018081E091DD0105
:10067000F091DE0182FD1BC090818091E0018F5FCF
:100680008F732091E101821741F0E091E001F0E0E9
:10069000E953FE4F958F8093E001FF91EF919F9179
:1006A0008F912F910F900FBE0F901F901895808102
:1006B000F4CF1F920F920FB60F9211242F933F93F6
:1006C0008F939F93AF93BF93809164029091650243
:1006D000A0916602B09167023091190123E0230FC7
:1006E0002D3768F126E8230F0296A11DB11D209336
:1006F00019018093640290936502A0936602B093FF
:1007000067028091150190911601A0911701B09197
:1007100018010196A11DB11D80931501909316013A
:10072000A0931701B0931801BF91AF919F918F9142
:100730003F912F910F900FBE0F901F90189501962B
:10074000A11DB11DD4CF1F920F920FB60F9211248D
:100750002F933F934F935F936F937F938F939F93C9
:10076000AF93BF93CF93DF93EF93FF9380911401E7
:10077000C0918C02D0E087FF24C0109285001092B7
:100780008400809114018F5F809314018091140183
:10079000082E000C990B8C179D0724F480911401EE
:1007A0008C30C4F18091840090918500049680344F
:1007B0009C4908F47AC08091840090918500049649
:1007C00076C080911401082E000C990B8C179D07A0
:1007D000C4F6E09114018E2FEE0F990BFC01EE0F81
:1007E000FF1FE80FF91FE859FD4F808186FFC9CF31
:1007F000E09114018E2FEE0F990BFC01EE0FFF1FFD
:10080000E80FF91FE859FD4F808160E08F730E9467
:100810000502B7CF2091840030918500E09114014A
:100820008E2FEE0F990BFC01EE0FFF1FE80FF91F43
:10083000E859FD4F81819281820F931F9093890027
:1008400080938800E09114018E2FEE0F990BFC012C
:10085000EE0FFF1FE80FF91FE859FD4F808186FF5B
:1008600011C0E09114018E2FEE0F990BFC01EE0FD9
:10087000FF1FE80FF91FE859FD4F808161E08F737A
:100880000E940502FF91EF91DF91CF91BF91AF914F
:100890009F918F917F916F915F914F913F912F9198
:1008A0000F900FBE0F901F90189580E49CE99093D5
:1008B0008900809388008FEF80931401E3CF10921A
:1008C0002D0110922C0148EE53E060E070E040935F
:1008D0002E0150932F01609330017093310186E017
:1008E00091E090932B0180932A012DEC30E030931E
:1008F0003701209336012CEC30E0309339012093FE
:10090000380128EC30E030933B0120933A0129EC88
:1009100030E030933D0120933C012AEC30E03093ED
:100920003F0120933E012EEC30E0309341012093B3
:10093000400110924301109244011092450110921F
:1009400046011092CA011092C9014093CB01509305
:10095000CC016093CD017093CE019093C801809338
:10096000C70185EC90E09093D4018093D30184EC8F
:1009700090E09093D6018093D50180EC90E0909325
:10098000D8018093D70181EC90E09093DA018093B5
:10099000D90182EC90E09093DC018093DB0186EC3E
:1009A00090E09093DE018093DD011092E0011092BF
:1009B000E1011092E2011092E30180918C028C30EF
:1009C000F0F491E0980F90938C0280938D0290E068
:1009D000FC01EE0FFF1FE80FF91FE859FD4F88EBF0
:1009E0009BE0928381838FB7F89440916402509189
:1009F000650260916602709167028FBF08958FEF64
:100A000080938D02F0CF789484B5836084BD85B5E2
:100A1000836085BD80916E00816080936E0082E06E
:100A2000809381008091810081608093810080911A
:100A300080008160809380008091B1008460809309
:100A4000B1008091B00081608093B00080919100EE
:100A500083608093910080919000816080939000EA
:100A60008091A10083608093A1008091A0008160AB
:100A70008093A00087E880937A001092C10061E023
:100A800084E10E94700261E083E10E94700261E0F3
:100A900082E10E94700261E081E10E94700261E0E7
:100AA0008CE10E94700261E087E10E94700261E0C7
:100AB00086E10E94700261E085E10E9470028091EF
:100AC0008D028C3008F051C061E08CE00E94700211
:100AD00080918D02282F30E0F901EE0FFF1FE20F09
:100AE000F31FE859FD4F9081907C9C609083109299
:100AF0008E0210928F022CE0622F0E949707829F35
:100B0000B001112430E020E0AB01420F531FFA0185
:100B1000EE0FFF1FE40FF51FE859FD4F908196FD82
:100B200016C02F5F3F4F2C30310571F781110FC078
:100B30001092800082E080938100109285001092D4
:100B40008400B19A80916F00826080936F00E09181
:100B50008D028E2F90E0FC01EE0FFF1FE80FF91FB2
:100B6000E859FD4F80818064808310918D028091CF
:100B70008F0248E5E42E42E0F42EE81AF10887FDE2
:100B8000F394EE0CFF1CEE0CFF1C80918E02C8E863
:100B9000D0E0C81BD10987FDD395CC0FDD1FCC0F4A
:100BA000DD1F4E010D2E000CAA08BB0897010F2C6B
:100BB000000C440B550B281939094A095B09A8E4B4
:100BC000B0E00E945B0724EB30E040E050E00E9480
:100BD0003C07820E931EA41EB51E1C30C8F48C1652
:100BE0009D062CF0E7018E149F040CF4E40122977B
:100BF000CC0FDD1F2FB7F894812F90E0FC01EE0F92
:100C0000FF1FE80FF91FE859FD4FD283C1832FBFA3
:100C100061E085E10E94050261E086E10E94050233
:100C200061E087E10E94050261E081E10E94050226
:100C300061E082E10E94050261E083E10E94050219
:100C400061E086E20E94700260E086E20E94050296
:100C500061E08EE00E94700261E08EE00E9470020E
:100C600060E08EE00E940502E091D701F091D8018A
:100C700032E03083E091D301F091D4011082E09111
:100C8000D501F091D60123E320831092DF01E0919A
:100C9000DB01F091DC0196E09083E091D901F091C5
:100CA000DA01808188698083E091D901F091DA01CD
:100CB00080818F7D8083E0913A01F0913B01308308
:100CC000E0913601F09137011082E0913801F09106
:100CD0003901208310924201E0913E01F0913F01E1
:100CE0009083E0913C01F0913D018081886980838F
:100CF000E0913C01F0913D0180818F7D808360E037
:100D000084E00E94700260E083E00E94700288EE3E
:100D1000882E83E0982EA12CB12C809226019092EF
:100D20002701A0922801B09229018092220190927D
:100D30002301A0922401B0922501C0901E01D09001
:100D40001F01E0902001F090210188EEC81683E099
:100D5000D806E104F1040CF06EC081E0809301013B
:100D600061E083E10E94050261E084E10E940502E6
:100D700084E690E00E94A10260E084E10E94050206
:100D800084E690E00E94A10280910101882309F489
:100D90005EC08FEFC81AD80AE80AF80AC0921E018E
:100DA000D0921F01E0922001F0922101C0901A011F
:100DB000D0901B01E0901C01F0901D018091220158
:100DC00090912301A0912401B0912501C816D90664
:100DD000EA06FB060CF041C081E08093000161E06F
:100DE00087E10E94050261E08CE10E94050284E631
:100DF00090E00E94A10260E08CE10E94050284E67E
:100E000090E00E94A10280910001882379F18FEF88
:100E1000C81AD80AE80AF80AC0921A01D0921B012F
:100E2000E0921C01F0921D0184EF91E00E94A1026A
:100E30000E94E50172CF88EEC81683E0D806E1046F
:100E4000F10409F4B3CF1092010160E08ACF81E090
:100E5000C81AD108E108F108A1CF8C159D05AE058F
:100E6000BF0514F71092000160E0BACF81E0C81A04
:100E7000D108E108F108D0CF052E97FB1EF40094AD
:100E80000E94530757FD07D00E94660707FC03D056
:100E90004EF40C94530750954095309521953F4F53
:100EA0004F4F5F4F089590958095709561957F4F56
:100EB0008F4F9F4F08950E948807A59F900DB49F64
:100EC000900DA49F800D911D11240895A1E21A2E6A
:100ED000AA1BBB1BFD010DC0AA1FBB1FEE1FFF1FDE
:100EE000A217B307E407F50720F0A21BB30BE40B2E
:100EF000F50B661F771F881F991F1A9469F7609575
:100F00007095809590959B01AC01BD01CF0108952E
:100F1000A29FB001B39FC001A39F700D811D11243A
:100F2000911DB29F700D811D1124911D0895991B73
:100F300079E004C0991F961708F0961B881F7A95D0
:100F4000C9F780950895EE0FFF1F0590F491E02DED
:060F50000994F894FFCFA4
:100F56000101000000007801D8000501C501360135
:040F66001401280149
:00000001FF
